{
  "_format": "hh-sol-artifact-1",
  "contractName": "CoinFlip",
  "sourceName": "contracts/CoinFlip.sol",
  "abi": [
    {
      "inputs": [
        {
          "internalType": "address",
          "name": "priceFeedAddress",
          "type": "address"
        }
      ],
      "stateMutability": "nonpayable",
      "type": "constructor"
    },
    {
      "anonymous": false,
      "inputs": [
        {
          "indexed": false,
          "internalType": "address",
          "name": "sender",
          "type": "address"
        },
        {
          "indexed": false,
          "internalType": "bool",
          "name": "won",
          "type": "bool"
        }
      ],
      "name": "Land",
      "type": "event"
    },
    {
      "inputs": [],
      "name": "MINIMUM_USD",
      "outputs": [
        {
          "internalType": "uint256",
          "name": "",
          "type": "uint256"
        }
      ],
      "stateMutability": "view",
      "type": "function"
    },
    {
      "inputs": [
        {
          "internalType": "bool",
          "name": "heads",
          "type": "bool"
        }
      ],
      "name": "flipCoin",
      "outputs": [],
      "stateMutability": "payable",
      "type": "function"
    },
    {
      "inputs": [],
      "name": "getPriceFeed",
      "outputs": [
        {
          "internalType": "contract AggregatorV3Interface",
          "name": "",
          "type": "address"
        }
      ],
      "stateMutability": "view",
      "type": "function"
    }
  ],
  "bytecode": "0x608060405234801561001057600080fd5b50604051610845380380610845833981810160405281019061003291906100db565b806000806101000a81548173ffffffffffffffffffffffffffffffffffffffff021916908373ffffffffffffffffffffffffffffffffffffffff16021790555050610108565b600080fd5b600073ffffffffffffffffffffffffffffffffffffffff82169050919050565b60006100a88261007d565b9050919050565b6100b88161009d565b81146100c357600080fd5b50565b6000815190506100d5816100af565b92915050565b6000602082840312156100f1576100f0610078565b5b60006100ff848285016100c6565b91505092915050565b61072e806101176000396000f3fe6080604052600436106100345760003560e01c80636b69a592146100395780637b8ff38f146100645780639e87a5cd14610080575b600080fd5b34801561004557600080fd5b5061004e6100ab565b60405161005b919061029b565b60405180910390f35b61007e600480360381019061007991906102f3565b6100b7565b005b34801561008c57600080fd5b50610095610183565b6040516100a2919061039f565b60405180910390f35b670de0b6b3a764000081565b670de0b6b3a76400006100f360008054906101000a900473ffffffffffffffffffffffffffffffffffffffff16346101ac90919063ffffffff16565b1015610134576040517f08c379a000000000000000000000000000000000000000000000000000000000815260040161012b90610417565b60405180910390fd5b600061013e6101e8565b90507f93b6721355c0bb717122314c308bed5a6b2a22a8b88c9a5a0a2d098daa464dc73382151584151514604051610177929190610467565b60405180910390a15050565b60008060009054906101000a900473ffffffffffffffffffffffffffffffffffffffff16905090565b6000806101b8836101f1565b90506000670de0b6b3a764000085836101d191906104bf565b6101db9190610530565b9050809250505092915050565b60006001905090565b6000808273ffffffffffffffffffffffffffffffffffffffff1663feaf968c6040518163ffffffff1660e01b815260040160a060405180830381865afa15801561023f573d6000803e3d6000fd5b505050506040513d601f19601f820116820180604052508101906102639190610605565b5050509150506402540be4008161027a9190610680565b915050919050565b6000819050919050565b61029581610282565b82525050565b60006020820190506102b0600083018461028c565b92915050565b600080fd5b60008115159050919050565b6102d0816102bb565b81146102db57600080fd5b50565b6000813590506102ed816102c7565b92915050565b600060208284031215610309576103086102b6565b5b6000610317848285016102de565b91505092915050565b600073ffffffffffffffffffffffffffffffffffffffff82169050919050565b6000819050919050565b600061036561036061035b84610320565b610340565b610320565b9050919050565b60006103778261034a565b9050919050565b60006103898261036c565b9050919050565b6103998161037e565b82525050565b60006020820190506103b46000830184610390565b92915050565b600082825260208201905092915050565b7f596f75206e65656420746f207370656e64206d6f726520455448210000000000600082015250565b6000610401601b836103ba565b915061040c826103cb565b602082019050919050565b60006020820190508181036000830152610430816103f4565b9050919050565b600061044282610320565b9050919050565b61045281610437565b82525050565b610461816102bb565b82525050565b600060408201905061047c6000830185610449565b6104896020830184610458565b9392505050565b7f4e487b7100000000000000000000000000000000000000000000000000000000600052601160045260246000fd5b60006104ca82610282565b91506104d583610282565b92508282026104e381610282565b915082820484148315176104fa576104f9610490565b5b5092915050565b7f4e487b7100000000000000000000000000000000000000000000000000000000600052601260045260246000fd5b600061053b82610282565b915061054683610282565b92508261055657610555610501565b5b828204905092915050565b600069ffffffffffffffffffff82169050919050565b61058081610561565b811461058b57600080fd5b50565b60008151905061059d81610577565b92915050565b6000819050919050565b6105b6816105a3565b81146105c157600080fd5b50565b6000815190506105d3816105ad565b92915050565b6105e281610282565b81146105ed57600080fd5b50565b6000815190506105ff816105d9565b92915050565b600080600080600060a08688031215610621576106206102b6565b5b600061062f8882890161058e565b9550506020610640888289016105c4565b9450506040610651888289016105f0565b9350506060610662888289016105f0565b92505060806106738882890161058e565b9150509295509295909350565b600061068b826105a3565b9150610696836105a3565b92508282026106a4816105a3565b91507f800000000000000000000000000000000000000000000000000000000000000084146000841216156106dc576106db610490565b5b82820584148315176106f1576106f0610490565b5b509291505056fea26469706673582212201a2492a8086b49be3364a5b92cc2667756ad38bc09f7f54e67cf0e5bf94cc53d64736f6c63430008180033",
  "linkReferences": {},
  "deployedLinkReferences": {}
}