{
  "_format": "hh-sol-artifact-1",
  "contractName": "CoinFlip",
  "sourceName": "contracts/CoinFlip.sol",
  "abi": [
    {
      "inputs": [
        {
          "internalType": "bool",
          "name": "heads",
          "type": "bool"
        }
      ],
      "name": "flipCoin",
      "outputs": [
        {
          "internalType": "bool",
          "name": "",
          "type": "bool"
        }
      ],
      "stateMutability": "pure",
      "type": "function"
    }
  ],
  "bytecode": "0x608060405234801561001057600080fd5b5061014f806100206000396000f3fe608060405234801561001057600080fd5b506004361061002b5760003560e01c80637b8ff38f14610030575b600080fd5b61004a600480360381019061004591906100c2565b610060565b60405161005791906100fe565b60405180910390f35b60008061006b61007c565b905080151583151514915050919050565b60006001905090565b600080fd5b60008115159050919050565b61009f8161008a565b81146100aa57600080fd5b50565b6000813590506100bc81610096565b92915050565b6000602082840312156100d8576100d7610085565b5b60006100e6848285016100ad565b91505092915050565b6100f88161008a565b82525050565b600060208201905061011360008301846100ef565b9291505056fea2646970667358221220565f1b4e990ae3a63aa8a39654e36b6b1a8f58ea403fa5a8d2082e1cbecc207a64736f6c63430008180033",
  "linkReferences": {},
  "deployedLinkReferences": {}
}